:020000040800F2
:10000000100A0020490100089F1300087D11000814
:100010009D13000801020008A1170008000000005D
:10002000000000000000000000000000C3130008F2
:100030000302000800000000C1130008C5130008F7
:100040006301000863010008630100086301000800
:1000500063010008630100086301000863010008F0
:1000600063010008630100086301000863010008E0
:1000700063010008630100086301000863010008D0
:1000800063010008630100086301000863010008C0
:1000900063010008630100086301000863010008B0
:1000A00063010008630100086301000863010008A0
:1000B0006301000863010008630100086301000890
:1000C0006301000863010008630100086301000880
:1000D0006301000835160008CD160008630100080A
:1000E0006301000863010008630100086301000860
:1000F0006301000863010008630100086301000850
:10010000630100086301000863010008630100083F
:10011000630100086301000863010008630100082F
:10012000630100086301000863010008630100081F
:10013000DFF810D000F052F800F02AF8004800472D
:100140004D210008100A0020064880470648004755
:10015000FEE7FEE7FEE7FEE7FEE7FEE7FEE7FEE777
:10016000FEE7FEE71914000831010008D2B201E0F1
:1001700000F8012B491EFBD270470022F6E710B5AC
:1001800013460A4604461946FFF7F0FF204610BD05
:1001900070B5054C054D03E0206820448047241DC0
:1001A000AC42F9D170BD00003C220008402200089A
:1001B00030B50B46014600202022012409E021FA37
:1001C00002F59D4205D303FA02F5491B04FA02F534
:1001D0002844151EA2F10102F1DC30BD064C074D8A
:1001E00006E0E06840F0010394E807009847103407
:1001F000AC42F6D3FFF7A0FF0C2200083C22000817
:10020000FEE7704730B5B3F5804F05D06FF0704111
:1002100040F82210002030BD8C690B688D682343A4
:100220004C688989240144EA0524234343EA0141B7
:1002300050F82230014C23401943E9E70000F0CF89
:1002400030B50A6850F8223023F0010340F822301C
:100250008C68204B4A68082C1ED02243D1E9034504
:100260002C4322434C6922438C692243CC692243AC
:100270000C6A22434C6A22438C6A2243CC6A224392
:100280000C6B0968224350F821401C4052EA0402DA
:1002900040F82120002030BDD1E9034542F008029A
:1002A0002C4322434C6922438C692243CC6922436C
:1002B0000C6A22434C6A22438C6A2243CC6A224352
:1002C0000C6B0968224350F821401C40224342F045
:1002D0004002DDE78100F7FF30B5D1E9003443EAA1
:1002E00004138C688D89240244EA054423430C8A54
:1002F000094D00EB820005EB045423430C7D6D0196
:1003000005EB0464896923430B43416801F04041D4
:100310000B434360002030BD0000F0FF70B50400C7
:1003200003D094F8200010B104E0012070BD2046F5
:1003300000F082F82068016821F00201016000F0FD
:10034000F5F90546052604E000F0F0F9401B0A28FF
:1003500011D8206840688007F6D42068016841F011
:100360000101016000F0E2F905460BE000F0DEF962
:10037000401B0A2806D9606A40F40030606284F8A5
:100380002060D2E720684068C007EFD0207E0128B7
:10039000206801683DD021F080010160607E012865
:1003A0002068016838D021F040010160A07E01285A
:1003B0002068016833D021F020010160E07E01282F
:1003C000206801682ED041F010010160207F0128D3
:1003D0002068016829D021F008010160607F0128B0
:1003E0002068016824D021F004010160D4E90201F1
:1003F0000843D4E90412114308436168491E0843C5
:100400002168C86100206062012084F8200000207B
:1004100070BD41F08001C0E741F04001C5E741F007
:100420002001CAE721F01001CFE741F00801D4E72D
:1004300041F00401D9E7000010B586B00021009119
:1004400001910291039100681349884222D1134817
:10045000C16941F00071C161C16901F0007104918D
:10046000816941F00401816180690D4C00F0040054
:1004700004904FF4006000906946204600F05CF85C
:10048000A0140090022001900320039069462046AA
:1004900000F052F806B010BD0064004000100240A9
:1004A0000008014030B585B0002000900190029016
:1004B00003901B480168002930D1012101601948CF
:1004C000416941F4807141614069022400F4807007
:1004D00004904FF23F00CDE90004032569460395DF
:1004E000114800F029F840F23F40CDE90004694688
:1004F00003950E4800F020F84FF68370CDE9000414
:10050000694603950A4800F017F84FF63370CDE9B5
:10051000000469460395074800F00EF805B030BDA9
:100520005000002000100240001C0140002001404B
:1005300000180140001401402DE9F84FDFF8B8A180
:1005400000220AF1040B144601274FF00F090BF1AA
:10055000040E00BF0B6807FA04F52B40AB4274D1C0
:10056000DFF898C14E68A6EB0C0866452BD00DDC71
:10057000032E34D005DC36B3012E19D0022E2FD134
:100580001BE0112E16D0122E2AD119E0B8F5881FC3
:1005900019D006DCB8F5803F15D0B8F5801F1FD103
:1005A00011E0B8F5001F0ED0B8F5041F18D10AE00D
:1005B000CA6815E0CA68121D12E0CA6808320FE066
:1005C000CA680C320CE08A682AB1012A4FF008028E
:1005D00003D0456104E0042202E0056100E000224E
:1005E000FF2B01D8064601E000F104064FEA84051E
:1005F00001D9A5F12005D6F800C009FA05F82CEAC2
:10060000080C02FA05F54CEA050CC6F800C04D6866
:10061000ED006AD53A4DAE6946F00106AE61AD69AE
:1006200024F0030605F001050095364D06EB050C98
:10063000DCF80850A6074FEA167809FA08F6B54321
:10064000314EB04202D100261AE04EE02F4EB042A9
:1006500001D1012614E02E4EB04201D102260FE056
:100660002C4EB04201D103260AE02B4EB04201D1FC
:10067000042605E0294EB04201D1052600E00626F9
:1006800006FA08F62E43CCF808604D68DAF80060E8
:10069000ED03554601D51E4300E09E432E604D6894
:1006A000AD0305D5DBF800601E43CBF8006004E025
:1006B000DBF800509D43CBF800504D68DEF8006039
:1006C000ED02754601D51E4300E09E432E604D6845
:1006D000AD0205D5084D0C352E681E432E6004E092
:1006E000054E0C3635689D433560641C102CFFF4B4
:1006F00031AFBDE8F88F0000000401400000111088
:10070000001002400000014000080140000C0140C0
:10071000001001400014014000180140001C01407D
:100720000AB1016170470904FBE7000001488068D5
:10073000704700005C000020024881680278114484
:10074000816070475C000020074810B5016841F0E7
:1007500010010160032000F073F8002000F006F89B
:1007600000F024F8002010BD0020024070B50D4DAF
:1007700004464FF47A712878B1FBF0F00A49096811
:10078000B1FBF0F000F0C3FB48B9102C07D20022F7
:100790002146501E00F034F800206C6070BD01202E
:1007A00070BD00005C000020680000200C4808B507
:1007B000816941F001018161816901F001010091CC
:1007C000C16941F08051C161C06900F08050009062
:1007D0000448416821F0E06141F00071416008BDCA
:1007E000001002400000014000F01F020121914072
:1007F0004009800000F1E020C0F8001170470000BF
:10080000F0B40E4B1B680C46C3F30223C3F107057B
:10081000042D00D90425191D072901D2002300E069
:10082000DB1E012606FA05F1491E214099409E4033
:10083000761E16403143F0BC00F0B2BD0CED00E076
:10084000064900F0070208684FF6FF03184040EA27
:100850000220034A10430860704700000CED00E0DE
:100860000000FA052DE9F047DFF8548105460E46F1
:10087000D8F8000000F00700B0420CD2D8F8001001
:1008800021F007013143C8F80010D8F8000000F04B
:100890000700B0426FD128684A4C810712D5400743
:1008A00003D5606840F4E06060602878000703D5F5
:1008B000606840F4605060606068A96820F0F000F3
:1008C000084360602878C00744D06868012816D0C3
:1008D0002168022816D0890700294CDA616821F0C6
:1008E000030101436160FFF721FF6968074641F298
:1008F000883001290ED00229814618D026E02168CF
:100900008903E9E78901E7E7FFF710FFC11B4945C4
:1009100001D918E081466068C0F381000128F3D155
:1009200018E000BFFFF702FFC11B49450BD8606804
:10093000C0F381000228F5D10CE000BFFFF7F6FEFE
:10094000C11B494502D90320BDE8F087606810F05B
:100950000C0FF3D1D8F80010404601F00701B14266
:100960000BD9016821F0070131430160006800F0F4
:100970000700B04201D00120E6E72878400705D5FE
:100980006068E96820F4E060084360602878000748
:1009900006D56068296920F4605040EAC1006060B3
:1009A00000F036F86168084AC1F30311515CC84091
:1009B000064908600020FFF7D9FE0020C4E70000C8
:1009C0000020024000100240F421000868000020CE
:1009D0000448054900684968044AC1F30221515C92
:1009E000C840704768000020001002400422000840
:1009F0000448054900684968044AC1F3C221515CB2
:100A0000C84070476800002000100240042200081F
:100A100012A185B00FC98DE80F0014A0144A006818
:100A200004905168134801F00C03042B10D0082BDC
:100A30000ED1C1F38343C9031DF803000AD55168E1
:100A400004AAC1F34041515C0A4A5043B0FBF1F0A3
:100A500005B0704708494843FAE70000020304055F
:100A6000060708090A0B0C0D0E0F101001020000FA
:100A70000010024000127A0000093D002DE9F84FF5
:100A800004460078B94DC00748D06868C0F38100BB
:100A9000012807D06868C0F38100022809D168687E
:100AA000C00306D52868800338D5606800286FD059
:100AB00034E06068B0F5803F0BD010B1B0F5A02FE6
:100AC00011D0286820F480302860286820F4802025
:100AD00002E0286840F480302860606888B1FFF741
:100AE00025FE064609E0286840F480202860F0E7EB
:100AF000FFF71CFE801B642875D828688003F7D593
:100B00000CE0FFF713FE064605E000BFFFF70EFE00
:100B1000801B6428F0D828688003F7D42078944E8E
:100B200080074FF001094FF000083BD5686810F0CE
:100B30000C0F07D06868C0F38100022809D16868EB
:100B4000C00306D42868800714D5206901281FD166
:100B500010E02069B0B1C6F80090FFF7E7FD074646
:100B600005E000BFFFF7E2FDC01B0228C4D82868DB
:100B70008007F7D52868616920F0F80040EAC100D5
:100B800028600FE0C6F80080FFF7D0FD074606E0BA
:100B9000E9E000BFFFF7CAFDC01B022823D8286880
:100BA0008007F7D4207800072CD57248A169D9B105
:100BB000C0F80090FFF7BAFD074604E0FFF7B6FD66
:100BC000C01B02280FD8686A8007F7D56A484FF41F
:100BD000FA510068B0FBF1F0009000BF0098411E90
:100BE0000091FAD20EE080E0C0F80080FFF79EFD91
:100BF000074604E0FFF79AFDC01B022875D8686A13
:100C00008007F7D42078400760D5E8690027C00046
:100C100008D4E86940F08050E861E869012700F0F5
:100C20008050009055480168C90513D40168834677
:100C300041F480710160FFF779FD824606E000BF54
:100C4000FFF774FDA0EB0A0064284ED8DBF8000023
:100C5000C005F5D5E06801280AD008B1052813D0F1
:100C6000286A20F001002862286A20F0040002E0CF
:100C7000286A40F001002862E06841F2883B98B1A0
:100C8000FFF754FD82460BE0286A40F0040028621A
:100C9000EEE700BFFFF74AFDA0EB0A0159455AD81D
:100CA000286A8007F6D50CE0FFF740FD824605E094
:100CB000FFF73CFDA0EB0A0159454CD8286A800794
:100CC000F6D41FB1E86920F08050E861E06988B38C
:100CD0006968C1F38101022945D00228C6F8608005
:100CE00004D0FFF723FD044638E034E0FFF71EFD93
:100CF000074604E0FFF71AFDC01B02282BD828681E
:100D00008001F7D4206AB0F5803F05D16868A168FA
:100D100020F4003008436860D4E90801084369689A
:100D200021F4741108436860C6F86090FFF7FEFC78
:100D3000044606E015E000BFFFF7F8FC001B0228A0
:100D400009D828688001F7D50BE000BFFFF7EEFC5B
:100D5000001B022802D90320BDE8F88F2868800113
:100D6000F4D40020F8E70120F6E70000001002406C
:100D700000004242800442426800002000700040AF
:100D800070B5040005D00025A56294F8510010B19B
:100D900004E0012070BD204600F034F8022084F801
:100DA00051002068016821F040010160D4E901018F
:100DB0000843D4E903121143084361690843218BB6
:100DC00001F400710843E1690843216A0843A16AFC
:100DD000084321680860A069042101EA1040616AA3
:100DE0000843216848602168E06A08612068C16999
:100DF00021F40061C1616565012084F85100002083
:100E000070BD000030B585B00024009401940294B8
:100E10000394234D0368234802210322AB4216D1D9
:100E2000836943F480538361836903F4805304939B
:100E3000836943F0040383618069039200F0040036
:100E40000490A020CDE900016946174823E0174D22
:100E5000AB4222D1C36943F48043C361C36903F445
:100E600080430493836943F0080383618069104DD4
:100E700000F0080004904FF42040CDE900010392F7
:100E800069462846FFF758FB4FF48040CDE900043F
:100E9000694628460294FFF74FFB05B030BD0000BD
:100EA00000300140001002400008014000380040BE
:100EB000000C014070B515460E46040003D094F8AE
:100EC0003D0010B107E0012070BD002084F83C0017
:100ED000204600F01AF804F108012068FFF7B0F985
:100EE0003146A2682068FFF7F7F9D4E901022946E4
:100EF000236BFFF787F9A168206850F8212042F0A2
:100F0000010240F82120002070BDFFF7CBBA10B5D8
:100F1000401EB0F1807F01D3012010BD4FF0E024CE
:100F200060610F21601700F03BFA0020A0610720EC
:100F30002061002010BD70B5040004D094F8390081
:100F4000002510B106E0012070BD84F8385020461D
:100F500000F022F8242084F839002068C16821F4C8
:100F60000051C160204600F07BFA2068016921F43D
:100F7000904101612068416921F02A0141612068A6
:100F8000C16841F40051C160E563202084F8390054
:100F900084F83A00002070BD70B586B0002400943B
:100FA0000194029403942E4E03682E4902200322DA
:100FB0002D4DB34226D18B6943F480438B618B69FD
:100FC00003F4804304938B6943F004038B618969C4
:100FD000039201F0040104910102CDE90010694679
:100FE0002846FFF7A9FA2815CDE9000469462846E6
:100FF0000294FFF7A1FA002211462520FFF700FC1A
:10100000252028E0194EB34227D1CB6943F40033A1
:10101000CB61CB6903F4003304938B6943F0040381
:101020008B618969039201F0040104910421CDE9E7
:10103000001069462846FFF77FFA0820CDE9000432
:10104000694628460294FFF777FA002211462620C7
:10105000FFF7D6FB2620FFF7C7FB06B070BD0000E8
:1010600000380140001002400008014000440040E8
:1010700090F83A30202B22D1F9B1F2B190F8383003
:10108000012B1CD081628285C2850021C16322228E
:1010900080F83A2080F838100168CA6842F48072FB
:1010A000CA6001684A6942F001024A610068C16889
:1010B00041F02001C16000207047012070470220EC
:1010C00070472DE9F843044690F839001F4616464C
:1010D0000D46202850D1A5B19EB194F838000128C2
:1010E0004AD0012084F838004FF00008C4F83C8052
:1010F000212084F83900FFF719FBA6848146E68495
:1011000026E00120BDE8F883E08C401EE084A06862
:101110004B46B0F5805F4FF000024FF08001204653
:10112000009703D000F054FAE8B90DE000F050FA4F
:10113000C8B928882168C0F308004860206908B150
:101140006D1C05E0AD1C03E0216815F8010B48603B
:10115000E08C0028D8D14B46002240212046009741
:1011600000F036FA08B10320CCE7202084F83900DB
:1011700084F838800020C5E70220C3E7FEE70000BE
:101180000B480A494FF4002201600421416000210C
:101190008160C0E903124FF4E002426101764176BA
:1011A0008176C17601774177FFF7B8B800640040D7
:1011B0007000002010B588B01C216846FEF7DDFFE6
:1011C00015484FF02041042201601449C0E9011282
:1011D00000211023C160C0E904138161C161940240
:1011E0000162C0E90914C1620163416381630F2098
:1011F000CDE90010CDE9022111200493CDE90501CC
:10120000002269460448FFF755FE0548C16941F4CC
:101210008061C16108B010BDC8010020040100A0B8
:10122000000001402DE9F04385B0002439480094C6
:10123000019402940394816941F0100181618169F4
:1012400001F010010491816941F08001816181699F
:1012500001F080010491816941F00401816181699B
:1012600001F004010491816941F008018161816903
:1012700001F008010491816941F480718161816903
:1012800001F480710491816941F0400181618169BB
:1012900001F040010491816941F020018161806980
:1012A000DFF8748000F020004FF4A876049001224B
:1012B00031464046FFF734FADFF8609041F2030709
:1012C000012239464846FFF72BFA042001258DE814
:1012D000310069461248FFF72FF9CDE90065032672
:1012E000CDE9024669464046FFF726F90097039686
:1012F000CDE9015469464846FFF71EF940200090A9
:101300000848CDE9010469460748FFF715F905B01B
:10131000BDE8F0830010024000080140000C0140CD
:101320000010014000001110002001400C480B4942
:10133000022201604FF48271416000218160C0E9A6
:10134000031201224261520282610822C0E9072190
:10135000416281620A21C162FFF712BD0030014083
:10136000980000200C480B49022201604FF4827162
:10137000416000218160C0E90312012242615202F2
:10138000C0E906210162416281620A21C162FFF760
:10139000F7BC000000380040F0000020FEE7704776
:1013A0000907090E002806DA00F00F0000F1E0201E
:1013B00080F8141D704700F1E02080F80014704799
:1013C00070477047FFF7B8B930B58FB0282168462D
:1013D000FEF7D3FE14210AA8FEF7CFFE0121080470
:1013E000CDE900100024029402250491CDE90750B4
:1013F0004FF4E01009906846FFF740FB0F20CDE95D
:101400000A056802CDE90C4002210AA80E94FFF7F4
:1014100029FA0FB030BD00000D48016841F001010C
:10142000016041680B4A1140416001680A4A11405D
:101430000160016821F480210160416821F4FE010E
:1014400041604FF41F0181600449C0030860704788
:10145000001002400000FFF8FFFFF6FE08ED00E07C
:101460002DE9F041044600680169E26821F4405129
:10147000114301612169A06808436169084321683B
:10148000CA6841F20C639A430243CA60206841690A
:10149000A26921F44071114341614C4920686425DF
:1014A000322688423CD1FFF7A3FA00EBC00101EBE2
:1014B000001061688900B0FBF1F7FFF799FA00EBC3
:1014C000C00101EB00106168B0468900B0FBF1F08B
:1014D000B0FBF5F06FF01801484307EB800106EB15
:1014E0000110B0FBF5F000F0F006FFF781FA00EB19
:1014F000C00101EB001061688900B0FBF1F0B0FBA6
:10150000F5F006EB0016FFF773FA00EBC00101EBF4
:10151000001061688900B0FBF1F7FFF769FA3BE062
:10152000FFF756FA00EBC00101EB0010616889007B
:10153000B0FBF1F7FFF74CFA00EBC00101EB001034
:101540006168B0468900B0FBF1F0B0FBF5F06FF0D8
:101550001801484307EB800106EB0110B0FBF5F0E2
:1015600000F0F006FFF734FA00EBC00101EB0010C9
:1015700061688900B0FBF1F0B0FBF5F006EB0016F6
:10158000FFF726FA00EBC00101EB0010616889004B
:10159000B0FBF1F7FFF71CFA00EBC00101EB001004
:1015A00061688900B0FBF1F0B0FBF5F06FF0180155
:1015B000484307EB800108EB0110B0FBF5F0216810
:1015C00000F00F0030448860BDE8F0810038014031
:1015D0002DE9F041984617460E460446069D1DE04B
:1015E000681C1BD02DB1FFF7A1F8A0EB0800A842A2
:1015F00014D92068C16821F4D071C16020684169A4
:1016000021F001014161202084F8390084F83A007A
:10161000002084F838000320BDE8F08120680068CD
:1016200036EA000004D00020B842D9D00020F3E709
:101630000120F9E7AFF30080F0B52248006880068A
:1016400034D52048001D00681127C5B21E484FF050
:10165000140C00F11801027802EBC20601EBC6037C
:1016600007EBC6071C7C521C0C44D2B2E5551C7C0F
:101670000027641CE4B21C740D2D18D0322C15D137
:10168000D0E902546D1C44F10004C0E90254C3E9DE
:101690000254A22301F83630B2FBFCF30CFB1322F8
:1016A000027002EBC20001EBC0000774F0BDD0E98C
:1016B00002546D1C44F10004C0E90254C3E9025411
:1016C000A123E7E70038014000000068AFF3008085
:1016D0002DE9F0432F48006880063DD52D48001DB8
:1016E00000681125C6B22C482C4F00F5B768447825
:1016F0004FF0000C04EBC40308EBC30205EBC30579
:10170000117C4FF0140941444E55117C491CC9B25B
:101710001174BD790D2D01D10A2E02D032291DD0B0
:1017200035E087F806C0D0E90415491C45F10005ED
:10173000C0E90415C2E90215A12108F83310641CA0
:10174000E1B2B1FBF9F309FB1311417001EBC100E8
:1017500008EBC00080F810C0BDE8F083D0E90415A4
:10176000491C45F10005C0E90415C2E90215A22192
:1017700008F83310641CE1B2B1FBF9F309FB131153
:10178000417001EBC10008EBC00080F810C0BE71D1
:10179000E2E700000044004000000068180000205C
:1017A000FEE7000070B50E48002580680D4C40072C
:1017B00006D40D4960680125884201D2401C606052
:1017C0000A496068884204D109A000F0CBFB00F010
:1017D000EFF82078A84201D000206060257070BD2D
:1017E000001001400000002000E1F50540420F001C
:1017F0000D0ABFAAC6F4BFECC1AC0D0A0000000080
:101800000146002001E0401CC0B20A5C002AFAD167
:10181000704700780978884201D000207047012085
:10182000704700002DE9F041504C514D4FF4FA78CB
:10183000D4E90A01D5E90223821A71EB030215D219
:10184000401C41F10002C4E90A02002105F118061A
:1018500001EBC10306EBC307D7E90237434057400A
:101860003B4331D0491CC9B21429F1D3D4E90C014E
:10187000D5E90432C31A71EB020215D2401C41F1C2
:1018800000013C4D0022C4E90C0100BF02EBC20381
:1018900005EBC306D6E9023643404E4033431ED023
:1018A000521CD2B2142AF1D300F0C6F8A0786628F0
:1018B00028D0A06942F21071401CB0FBF1F2A06187
:1018C00001FB1200D0B124E001EBC10006EBC00126
:1018D00043460A7C28481131FFF7F3FBC6E702EBC9
:1018E000C20005EBC00505F111012A7C43462348DF
:1018F000FFF7E7FB284600F0EFF9D5E7204800F0B6
:1019000019FB06E02078B1282CD001211C4800F0FA
:101910001DFB01211B4800F019FB2079622823D10F
:101920000021184800F012FBE0691749401CE061F3
:10193000884219D10020E06114A000F0BBF916A084
:1019400000F0B8F915A0FFF75BFF00F04BF817A007
:1019500000F0B0F911A000F0ADF9BDE8F04113A01E
:1019600000F0A8B90021D1E7BDE8F08118000020FF
:1019700000000068B80500688801002048010020C8
:10198000080000201000002040420F0041542B436B
:10199000495053454E443D00312C000049204C69CC
:1019A0006B6520796F750D0A000000000D000000C6
:1019B00003488178662901D1552181707047000064
:1019C00018000020064900200870C1E90200487094
:1019D000C1E904001831087401F5B4610874704756
:1019E000000000682DE9F843114C002507460A263F
:1019F0004FF4FA78B7FBF4F0B0FBF6F106FB1100F8
:101A00003030C0B28DF80000002C0ED0B4FBF6F4DC
:101A1000302801D0552501E0552DEBD14346012258
:101A200069460448FFF74DFBE4E7BDE8F883000092
:101A300000CA9A3B880100202DE9F041564C574ED0
:101A40002046217A4078002506292DD2DFE801F0D2
:101A5000030511191E2052A00CE0AA2802D16570BE
:101A600052A019E0206AB0421CD9207A401E207290
:101A70001AE052A000F01EF9207A401C2072256264
:101A800012E0AA28EED165704DA005E053A0F1E761
:101A9000AA28E7D1657055A000F064FA207A401CAE
:101AA0002072DFE7401C2062A07866285ED03A4EA4
:101AB000E068F61CB04209D10078552806D177209D
:101AC000A070042060724EA000F04CFA324A677A8F
:101AD000022366210620521C072F47D2DFE807F0B9
:101AE000042A2E3038333F00E068904202D1A078BB
:101AF000552813D060894FF47A72401C80B2B0FB35
:101B0000F2F302FB1302A2F540736081E73B2DD193
:101B100042F22832904229D9A17027E0E660357060
:101B20002078B12804D13BA000F0C4F8012014E0D3
:101B300063721BE02078A128FAD017E038A008E0F3
:101B40002178B12912D1E1680978AA2905D00DE0E0
:101B500038A000F0AFF8607A401C607206E0A07810
:101B6000552800D1A170E260658165722078E17925
:101B700088420FD0E071A12808D0B12808D0C12830
:101B800008D130A0BDE8F04100F0ECB934A0F9E78D
:101B90003AA0F7E7BDE8F0811800002040420F00AE
:101BA00041542B5245424F4F540D00004D43553A7E
:101BB0007265737461727420210D0A0041540D0026
:101BC0004D43553A415420636F6D6D616E642049F9
:101BD00073204F6B20210D0A0000000041542B554B
:101BE000415254453D4F46460D0000004D43553A85
:101BF000415420BBD8CFD4B9D8B1D50D0A000000CC
:101C00000D0A4572726F723A5F3078453030320D8E
:101C10000A00000041542B574A4150510D0000006A
:101C200041542B534D41525453544152543D320D63
:101C30000000000041542B534D41525453544F5017
:101C40003D320D004D43553A207769666920737423
:101C50006174696F6E204E554C4C210D0A000000D6
:101C60004D43553A20776966692073746174696FD2
:101C70006E20646F776E210D0A0000004D43553AC7
:101C800020776966692073746174696F6E2075705E
:101C9000210D0A0010B500228B5C845CA34201D0A8
:101CA000002010BD521CD2B28B5C002BF4D101205D
:101CB00010BD0000002201E0521C92B2815C00299C
:101CC000FAD1002A05D001464FF4FA730148FFF714
:101CD000F8B97047880100202DE9F041064600F16F
:101CE0001105077C407C0D2801D00A2801D1032F63
:101CF00034D3694C2B2878D121696D1C49B9284609
:101D0000FFF787FD28B128462169FFF7C3FF0028A8
:101D100024D162A12846FFF77CFD08B35FA12846C5
:101D2000FFF7B8FFE0B15DA0FFF76AFD05446D1C49
:101D30005CA12846FFF76DFD00280FD059A1284669
:101D4000FFF7A8FF08B1B12007E059A12846FFF727
:101D5000A1FF08B1A12000E0C1202070BDE8F08102
:101D600057A12846FFF755FD00283ED054A128462C
:101D7000FFF790FF00287DD051A0FFF741FD0544FB
:101D80006D1C52A12846FFF744FD78B350A0AD1C4E
:101D9000FFF736FD4219521C4FA11046FFF739FDDF
:101DA00038B14DA11046FFF775FF0028D6D062204C
:101DB0000BE04CA11046FFF72CFD40B149A11046A5
:101DC000FFF768FF0028C9D092202071C6E749A11B
:101DD0001046FFF71EFD0028C0D046A11046FFF7B1
:101DE00059FF0028BAD03220EFE743E0FFE743A1D4
:101DF0002846FFF70EFD0028B0D040A12846FFF787
:101E000049FF0028AAD03DA0FFF7FAFC05446D1C4D
:101E10002EA12846FFF7FDFC00289FD00020AD1C16
:101E2000C4F8140000EB80004000606115F8011B4D
:101E300030380844606128782C2801D06069F1E7C7
:101E40006D1CA81B1138C0B26071381A6169801E00
:101E5000884283D12BA000F085F8A08A4FF4FA7352
:101E600082B229462D48FFF72CF9BDE8F0412CA09D
:101E700000F078B82BA12846FFF70CFF08B1AA2084
:101E800006E02AA12846FFF705FF00289ED055202E
:101E9000E168087062E700001800002057455645C9
:101EA0004E54000053544154494F4E5F555000006A
:101EB00053544154494F4E5F444F574E0000000069
:101EC0004349504556454E54000000003100000083
:101ED0005345525645520000434F4E4E45435445DC
:101EE00044000000444953434F4E4E45435445443B
:101EF00000000000434C4F5345440000534F434BF8
:101F0000455400000D0A4461745F4C656D67746848
:101F1000203D2025643B0D0A000000004801002000
:101F20000D0A00004F4B0D0A000000004552524FB1
:101F3000520D0A0082798188036822B100228271E1
:101F40001846FEF7EDBB01228271F9E781718388A3
:101F50000A4600681946FEF7E3BB01608280012152
:101F6000817170470FB4054B10B503A9044A02985C
:101F700000F02CF810BC5DF814FB000021210008D3
:101F80006C00002002E008C8121F08C1002AFAD124
:101F900070477047002001E001C1121F002AFBD1E9
:101FA00070470000074B00B5012219460648FFF7AD
:101FB000D4FF05480222194608305DF804EBFFF70C
:101FC000CCBF0000000C0140080000202DE9FF4FAD
:101FD00089B09B460446002506E025280BD05A46CA
:101FE0000B999047641C6D1C20780028F5D10DB02A
:101FF0002846BDE8F08F0027B8460122474900E097
:10200000074314F8013F203B02FA03F00842F7D1DE
:1020100020782E2819D114F8010F47F004072A2838
:102020000ED06FF02F022078A0F1300109290CD8D2
:1020300008EB880102EB410100EB0108641CF2E7A8
:102040000A98641C50F8048B0A9020780028CED09F
:10205000642808D0692806D075281ED05A460B99E6
:1020600090476D1C58E00A994FF00A0901C90A917E
:10207000002802DA40422D2102E0390504D52B2147
:102080008DF82010012103E0F90704D02021F7E7A3
:102090008A4608AE0DE00021FAE70A994FF00A09D6
:1020A00001C90A91F7E74946FEF782F8303106F890
:1020B000011D0028F7D1ADEB060000F120097807DB
:1020C00001D44FF00108C84502DDA8EB090000E08B
:1020D00000208046002706E008A85A46C05D0B99FC
:1020E00090476D1C7F1C5745F6DB04E030205A46B4
:1020F0000B9990476D1CB8F10001A8F10108F5DCBF
:1021000005E016F8010B5A460B9990476D1CB9F182
:102110000001A9F10109F4DC641C65E7092801004C
:1021200038B504468DF8000006480078012806D12D
:102130004FF4FA73012269460348FEF7C2FF2046B6
:1021400038BD00005800002048010020FEF7FCFACE
:10215000FFF73AF9FFF766F8FFF712F8FFF72AF8EA
:10216000FFF7E4F8FFF7FEF810480F494FF4E135A8
:1021700000240160C0E901540C26C460C0E9044693
:102180008461C461FEF7D7FE084809494030016008
:10219000C0E90154C460C0E904468461C461FEF72B
:1021A000CAFE00F007F8FEE70038014048010020B1
:1021B0000044004008B5FFF705FC09A0FFF7D2FE78
:1021C000012269460948FEF753FF01226946084883
:1021D000FEF74EFFFFF726FBFFF7E4FAFAE70000F1
:1021E00055415254204F4B20210D0A004801002038
:1021F000880100200000000000000000010203042C
:10220000060708090000000001020304402200083C
:102210000000002070000000841F0008B0220008A9
:1022200070000020A0090000941F00080000006852
:1022300000000068580B0000941F000869FDFFFFB4
:10224000000000000000000000000000000000008E
:102250000000000000000000C1006600020000C194
:102260000000000019000020000000000000000035
:10227000000000000000000000000000000000005E
:10228000000000000000000000000000000000004E
:10229000000000000000000001000000010000003C
:1022A000100000000000000000A24A04000000002E
:0400000508000131BD
:00000001FF
